{"abi":[{"type":"constructor","inputs":[{"name":"_permit2","type":"address","internalType":"address"}],"stateMutability":"nonpayable"},{"type":"function","name":"DEFAULT_ADMIN_ROLE","inputs":[],"outputs":[{"name":"","type":"bytes32","internalType":"bytes32"}],"stateMutability":"view"},{"type":"function","name":"EXECUTOR_ROLE","inputs":[],"outputs":[{"name":"","type":"bytes32","internalType":"bytes32"}],"stateMutability":"view"},{"type":"function","name":"WITNESS_TYPE_STRING","inputs":[],"outputs":[{"name":"","type":"string","internalType":"string"}],"stateMutability":"view"},{"type":"function","name":"eip712Domain","inputs":[],"outputs":[{"name":"fields","type":"bytes1","internalType":"bytes1"},{"name":"name","type":"string","internalType":"string"},{"name":"version","type":"string","internalType":"string"},{"name":"chainId","type":"uint256","internalType":"uint256"},{"name":"verifyingContract","type":"address","internalType":"address"},{"name":"salt","type":"bytes32","internalType":"bytes32"},{"name":"extensions","type":"uint256[]","internalType":"uint256[]"}],"stateMutability":"view"},{"type":"function","name":"execute","inputs":[{"name":"_senderOrder","type":"tuple","internalType":"struct SenderOrder","components":[{"name":"order","type":"bytes","internalType":"bytes"},{"name":"signature","type":"bytes","internalType":"bytes"}]},{"name":"_recipientOrder","type":"tuple","internalType":"struct RecipientOrder","components":[{"name":"order","type":"bytes","internalType":"bytes"},{"name":"signature","type":"bytes","internalType":"bytes"}]}],"outputs":[],"stateMutability":"nonpayable"},{"type":"function","name":"getRoleAdmin","inputs":[{"name":"role","type":"bytes32","internalType":"bytes32"}],"outputs":[{"name":"","type":"bytes32","internalType":"bytes32"}],"stateMutability":"view"},{"type":"function","name":"grantRole","inputs":[{"name":"role","type":"bytes32","internalType":"bytes32"},{"name":"account","type":"address","internalType":"address"}],"outputs":[],"stateMutability":"nonpayable"},{"type":"function","name":"hasRole","inputs":[{"name":"role","type":"bytes32","internalType":"bytes32"},{"name":"account","type":"address","internalType":"address"}],"outputs":[{"name":"","type":"bool","internalType":"bool"}],"stateMutability":"view"},{"type":"function","name":"permit2","inputs":[],"outputs":[{"name":"","type":"address","internalType":"contract IPermit2"}],"stateMutability":"view"},{"type":"function","name":"renounceRole","inputs":[{"name":"role","type":"bytes32","internalType":"bytes32"},{"name":"callerConfirmation","type":"address","internalType":"address"}],"outputs":[],"stateMutability":"nonpayable"},{"type":"function","name":"revokeRole","inputs":[{"name":"role","type":"bytes32","internalType":"bytes32"},{"name":"account","type":"address","internalType":"address"}],"outputs":[],"stateMutability":"nonpayable"},{"type":"function","name":"supportsInterface","inputs":[{"name":"interfaceId","type":"bytes4","internalType":"bytes4"}],"outputs":[{"name":"","type":"bool","internalType":"bool"}],"stateMutability":"view"},{"type":"event","name":"EIP712DomainChanged","inputs":[],"anonymous":false},{"type":"event","name":"Executed","inputs":[{"name":"orderId","type":"uint256","indexed":true,"internalType":"uint256"}],"anonymous":false},{"type":"event","name":"RoleAdminChanged","inputs":[{"name":"role","type":"bytes32","indexed":true,"internalType":"bytes32"},{"name":"previousAdminRole","type":"bytes32","indexed":true,"internalType":"bytes32"},{"name":"newAdminRole","type":"bytes32","indexed":true,"internalType":"bytes32"}],"anonymous":false},{"type":"event","name":"RoleGranted","inputs":[{"name":"role","type":"bytes32","indexed":true,"internalType":"bytes32"},{"name":"account","type":"address","indexed":true,"internalType":"address"},{"name":"sender","type":"address","indexed":true,"internalType":"address"}],"anonymous":false},{"type":"event","name":"RoleRevoked","inputs":[{"name":"role","type":"bytes32","indexed":true,"internalType":"bytes32"},{"name":"account","type":"address","indexed":true,"internalType":"address"},{"name":"sender","type":"address","indexed":true,"internalType":"address"}],"anonymous":false},{"type":"error","name":"AccessControlBadConfirmation","inputs":[]},{"type":"error","name":"AccessControlUnauthorizedAccount","inputs":[{"name":"account","type":"address","internalType":"address"},{"name":"neededRole","type":"bytes32","internalType":"bytes32"}]},{"type":"error","name":"ECDSAInvalidSignature","inputs":[]},{"type":"error","name":"ECDSAInvalidSignatureLength","inputs":[{"name":"length","type":"uint256","internalType":"uint256"}]},{"type":"error","name":"ECDSAInvalidSignatureS","inputs":[{"name":"s","type":"bytes32","internalType":"bytes32"}]},{"type":"error","name":"InvalidOrderId","inputs":[]},{"type":"error","name":"InvalidRecipient","inputs":[]},{"type":"error","name":"InvalidShortString","inputs":[]},{"type":"error","name":"InvalidTransferAmount","inputs":[]},{"type":"error","name":"StringTooLong","inputs":[{"name":"str","type":"string","internalType":"string"}]}],"bytecode":{"object":"0x61016034620001cc576001600160401b0390601f6200192238819003918201601f1916830192919084841183851017620001b6578160209284926040968752833981010312620001cc57516001600160a01b0381169190829003620001cc578051906200006c82620001d1565b6010825260208201926f24a216a130b9b2b22a3930b739b332b960811b845281516200009881620001d1565b6001815260208101603160f81b8152620000b2856200030f565b95610120968752620000c483620004e6565b95610140968752519020918260e052519020610100968188524660a05284519160208301937f8b73c3c69bb8fe3d512ecc4cf759cc79239f7b179b0ffacaa9a75d522b39400f85528684015260608301524660808301523060a083015260a0825260c082019082821090821117620001b65784525190206080523060c052600380546001600160a01b0319169190911790556200016133620001ed565b506200016d336200026d565b50519161126393846200069f853960805184610feb015260a051846110b6015260c05184610fb5015260e0518461103a01525183611060015251826101650152518161018f0152f35b634e487b7160e01b600052604160045260246000fd5b600080fd5b604081019081106001600160401b03821117620001b657604052565b6001600160a01b031660008181527fad3228b676f7d3cd4284a5443f17f1962b36e491b30a40b2405849e597ba5fb5602052604081205490919060ff166200026957818052816020526040822081835260205260408220600160ff198254161790553391600080516020620019028339815191528180a4600190565b5090565b6001600160a01b031660008181527fdae2aa361dfd1ca020a396615627d436107c35eff9fe7738a3512819782d706960205260408120549091907fd8aa0f3194971a2a116679f7c2090f6939c8d4e01a2a8d7e41d55e5351469e639060ff166200030a57808352826020526040832082845260205260408320600160ff1982541617905560008051602062001902833981519152339380a4600190565b505090565b805160209081811015620003ac5750601f8251116200034b57808251920151908083106200033c57501790565b82600019910360031b1b161790565b90604051809263305a27a960e01b82528060048301528251908160248401526000935b82851062000392575050604492506000838284010152601f80199101168101030190fd5b84810182015186860160440152938101938593506200036e565b9192916001600160401b038111620001b65760019182548381811c91168015620004db575b82821014620004c557601f81116200048c575b5080601f83116001146200042457508192939460009262000418575b5050600019600383901b1c191690821b17905560ff90565b01519050388062000400565b90601f198316958460005282600020926000905b8882106200047457505083859697106200045a575b505050811b01905560ff90565b015160001960f88460031b161c191690553880806200044d565b80878596829496860151815501950193019062000438565b8360005283601f83600020920160051c820191601f850160051c015b828110620004b8575050620003e4565b60008155018490620004a8565b634e487b7160e01b600052602260045260246000fd5b90607f1690620003d1565b805160209081811015620005745750601f8251116200051357808251920151908083106200033c57501790565b90604051809263305a27a960e01b82528060048301528251908160248401526000935b8285106200055a575050604492506000838284010152601f80199101168101030190fd5b848101820151868601604401529381019385935062000536565b906001600160401b038211620001b657600254926001938481811c9116801562000693575b83821014620004c557601f811162000659575b5081601f8411600114620005ed5750928293918392600094620005e1575b50501b916000199060031b1c19161760025560ff90565b015192503880620005ca565b919083601f198116600260005284600020946000905b888383106200063e575050501062000624575b505050811b0160025560ff90565b015160001960f88460031b161c1916905538808062000616565b85870151885590960195948501948793509081019062000603565b600260005284601f84600020920160051c820191601f860160051c015b82811062000686575050620005ac565b6000815501859062000676565b90607f16906200059956fe608080604052600436101561001357600080fd5b600090813560e01c90816301ffc9a714610a0b5750806307bd0265146109d057806312261ee7146109a7578063156e215214610973578063248a9ca3146109475780632f2ff15d1461090a57806336568abe146108c257806350df2d401461027157806384b0196e1461014f57806391d1485414610104578063a217fddf146100e85763d547741f146100a557600080fd5b346100e55760403660031901126100e5576100e16004356100c4610b8c565b90808452836020526100dc6001604086200154610c94565b610d38565b5080f35b80fd5b50346100e557806003193601126100e557602090604051908152f35b50346100e55760403660031901126100e5576040610120610b8c565b91600435815280602052209060018060a01b0316600052602052602060ff604060002054166040519015158152f35b50346100e557806003193601126100e5576101897f0000000000000000000000000000000000000000000000000000000000000000610dad565b906101b37f0000000000000000000000000000000000000000000000000000000000000000610eda565b906040519060209060208301938385106001600160401b0386111761025b579284926020610211889661020398604052858552604051988998600f60f81b8a5260e0858b015260e08a0190610b4c565b9088820360408a0152610b4c565b924660608801523060808801528460a088015286840360c088015251928381520193925b82811061024457505050500390f35b835185528695509381019392810192600101610235565b634e487b7160e01b600052604160045260246000fd5b50346100e55760403660031901126100e5576001600160401b03600435116100e5576040600435360360031901126100e5576001600160401b03602435116100e5576040602435360360031901126100e5577fd8aa0f3194971a2a116679f7c2090f6939c8d4e01a2a8d7e41d55e5351469e63808252816020526040822033835260205260ff604083205416156108a45750610311600480350180610bbb565b8101919060208184031261087c578035906001600160401b0382116108a0570160808184031261087c5760405190608082018281106001600160401b0382111761088c578060405281356001600160401b0381116108885782016060818703126108885761037e82610a60565b80356001600160401b03811161088457810186601f8201121561088457906103ae87836020604095359101610bed565b8352602081013560a0860152013560c0840152825260208101356001600160401b03811161088057810184601f8201121561088057906103f76060958360208895359101610bed565b602084015261040860408201610ba7565b604084015201358382015261042260046024350180610bbb565b908094918101031261087c576040519261043b84610a60565b61044481610ba7565b90818552602081013560208601526040810135604086015260406060840151926104776024803501602435600401610bbb565b9290938151927f4b9bfec89430348a146bca7f6da275b1b06689b42678082076df8dfd5360a081602085015260018060a01b0316828401526020810135606084015201356080820152608081528060a08101106001600160401b0360a083011117610868578060a060429201604052602081519101206104f5610fb2565b906040519161190160f01b83526002830152602282015220906001600160401b0381116108685760405192610534601f8301601f191660200185610a96565b8184523682820111610864579186602083869461055b9683610564990137840101526110dc565b90929192611118565b604051908160208101106001600160401b03602084011117610850576020820160405260018060a01b031680915260405160208101918252602081526105a981610a7b565b5190200361083e57602081015180511561082a576020809101510151602084015103610818576020815101516040840151036108065760035481516020830151604084015160609094015191936001600160a01b039384169316919061060d610ab7565b610621602460043501600435600401610bbb565b939094863b156108025796949290918896949260405198899763fe8ec1a760e01b895260c060048a0152610124890190805191606060c48c0152825180915260206101448c019301908c5b8181106107b857505050806020604092015160e48c015201516101048a01526003198982030160248a0152602080865192838152019501908a5b818110610772575050506044880152606487015285820360031901608487015285938793602093869382916106da91610b4c565b8481036003190160a486015281815292858401378181018401859052601f01601f1916010301925af180156107675761073b575b5060408201517fbcf6a68a2f901be4a23a41b53acd7697893a7e34def4e28acba584da75283b678280a280f35b6001600160401b03811161075357604090815261070e565b634e487b7160e01b82526041600452602482fd5b6040513d84823e3d90fd5b929496989a509294819799506040816107a2602093600195516020809160018060a01b0381511684520151910152565b0197019101908a989694928c9a989694926106a6565b929496989a9c5092819597999b506040816107ea602093600195516020809160018060a01b0381511684520151910152565b0195019101908c9a989694928e9c9a9896949261066c565b8880fd5b604051635d70603360e01b8152600490fd5b604051630f16a02160e21b8152600490fd5b634e487b7160e01b83526032600452602483fd5b604051634e46966960e11b8152600490fd5b634e487b7160e01b85526041600452602485fd5b8680fd5b634e487b7160e01b86526041600452602486fd5b5080fd5b8380fd5b8580fd5b8480fd5b634e487b7160e01b84526041600452602484fd5b8280fd5b6044906040519063e2517d3f60e01b82523360048301526024820152fd5b50346100e55760403660031901126100e5576108dc610b8c565b336001600160a01b038216036108f8576100e190600435610d38565b60405163334bd91960e11b8152600490fd5b50346100e55760403660031901126100e5576100e160043561092a610b8c565b90808452836020526109426001604086200154610c94565b610cba565b50346100e55760203660031901126100e557600160406020926004358152808452200154604051908152f35b50346100e557806003193601126100e5576109a361098f610ab7565b604051918291602083526020830190610b4c565b0390f35b50346100e557806003193601126100e5576003546040516001600160a01b039091168152602090f35b50346100e557806003193601126100e55760206040517fd8aa0f3194971a2a116679f7c2090f6939c8d4e01a2a8d7e41d55e5351469e638152f35b90503461087c57602036600319011261087c5760043563ffffffff60e01b81168091036108a05760209250637965db0b60e01b8114908115610a4f575b5015158152f35b6301ffc9a760e01b14905038610a48565b606081019081106001600160401b0382111761025b57604052565b604081019081106001600160401b0382111761025b57604052565b90601f801991011681019081106001600160401b0382111761025b57604052565b60405190608082018281106001600160401b0382111761025b57604052605882527f737320746f6b656e2c75696e7432353620616d6f756e742900000000000000006060837f5769746e657373207769746e657373295769746e65737328616464726573732060208201527f726563697069656e7429546f6b656e5065726d697373696f6e7328616464726560408201520152565b919082519283825260005b848110610b78575050826000602080949584010152601f8019910116010190565b602081830181015184830182015201610b57565b602435906001600160a01b0382168203610ba257565b600080fd5b35906001600160a01b0382168203610ba257565b903590601e1981360301821215610ba257018035906001600160401b038211610ba257602001918136038313610ba257565b9291926001600160401b039182811161025b57602090604093845196610c1960208460051b0189610a96565b602088848152019260061b850194818611610ba257925b858410610c405750505050505050565b8684830312610ba2578651908782019082821085831117610c7f57889287928452610c6a87610ba7565b81528287013583820152815201930192610c30565b60246000634e487b7160e01b81526041600452fd5b80600052600060205260406000203360005260205260ff60406000205416156108a45750565b9060009180835282602052604083209160018060a01b03169182845260205260ff60408420541615600014610d3357808352826020526040832082845260205260408320600160ff198254161790557f2f8788117e7eff1d82e926ec794901d17c78024a50270940304540a733656f0d339380a4600190565b505090565b9060009180835282602052604083209160018060a01b03169182845260205260ff604084205416600014610d335780835282602052604083208284526020526040832060ff1981541690557ff6391f5c32d9c69d2a47ea670b442974b53935d1edc7fd64eb21e047a839171b339380a4600190565b60ff8114610deb5760ff811690601f8211610dd95760405191610dcf83610a7b565b8252602082015290565b604051632cd44ac360e21b8152600490fd5b506040516000600190600154918260011c9060018416938415610ed0575b6020948584108114610ebc5783875286949392918115610e9c5750600114610e3d575b5050610e3a92500382610a96565b90565b9093915060016000527fb10e2d527612073b26eecdfd717e6a320cf44b4afac2b0732d9fcbe2b7fa0cf6936000915b818310610e84575050610e3a93508201013880610e2c565b85548784018501529485019486945091830191610e6c565b915050610e3a94925060ff191682840152151560051b8201013880610e2c565b634e487b7160e01b85526022600452602485fd5b91607f1691610e09565b60ff8114610efc5760ff811690601f8211610dd95760405191610dcf83610a7b565b5060405160006002549060018260011c9060018416938415610fa8575b6020948584108114610ebc5783875286949392918115610e9c5750600114610f49575050610e3a92500382610a96565b9093915060026000527f405787fa12a823e0f2b7631cc41b3ba8828b3321ca811111fa75cd3aa3bb5ace936000915b818310610f90575050610e3a93508201013880610e2c565b85548784018501529485019486945091830191610f78565b91607f1691610f19565b307f00000000000000000000000000000000000000000000000000000000000000006001600160a01b031614806110b3575b1561100d577f000000000000000000000000000000000000000000000000000000000000000090565b60405160208101907f8b73c3c69bb8fe3d512ecc4cf759cc79239f7b179b0ffacaa9a75d522b39400f82527f000000000000000000000000000000000000000000000000000000000000000060408201527f000000000000000000000000000000000000000000000000000000000000000060608201524660808201523060a082015260a0815260c081018181106001600160401b0382111761025b5760405251902090565b507f00000000000000000000000000000000000000000000000000000000000000004614610fe4565b815191906041830361110d5761110692506020820151906060604084015193015160001a9061119d565b9192909190565b505060009160029190565b6004811015611187578061112a575050565b600181036111445760405163f645eedf60e01b8152600490fd5b600281036111655760405163fce698f760e01b815260048101839052602490fd5b60031461116f5750565b602490604051906335e2f38360e21b82526004820152fd5b634e487b7160e01b600052602160045260246000fd5b91907f7fffffffffffffffffffffffffffffff5d576e7357a4501ddfe92f46681b20a0841161122157926020929160ff608095604051948552168484015260408301526060820152600092839182805260015afa156112155780516001600160a01b0381161561120c57918190565b50809160019190565b604051903d90823e3d90fd5b5050506000916003919056fea26469706673582212201171274513b19dbec3dfc120ff7403a5bf53985b9399ca2394c0a4a4ed8568d264736f6c634300081700332f8788117e7eff1d82e926ec794901d17c78024a50270940304540a733656f0d","linkReferences":{}},"methodIdentifiers":{"DEFAULT_ADMIN_ROLE()":"a217fddf","EXECUTOR_ROLE()":"07bd0265","WITNESS_TYPE_STRING()":"156e2152","eip712Domain()":"84b0196e","execute((bytes,bytes),(bytes,bytes))":"50df2d40","getRoleAdmin(bytes32)":"248a9ca3","grantRole(bytes32,address)":"2f2ff15d","hasRole(bytes32,address)":"91d14854","permit2()":"12261ee7","renounceRole(bytes32,address)":"36568abe","revokeRole(bytes32,address)":"d547741f","supportsInterface(bytes4)":"01ffc9a7"},"id":51}